:1000000012C02AC029C03FC227C026C025C024C0B4
:1000100023C022C021C020C01FC01EC01DC01CC0E4
:100020001BC01AC019C011241FBECFEDCDBF10E0F8
:10003000A0E6B0E0EAEDF4E002C005900D92AC3627
:10004000B107D9F720E0ACE6B0E001C01D92A237BD
:10005000B207E1F76AD13FC2D3CF10926C00EDE650
:10006000F0E01082118212828FE787BB18BA8AB340
:1000700087648ABB8BB387608BBB89E590E0F6D140
:100080000895CF93C62F6DE670E06DD1CC2319F0A3
:100090008AE080936D00CF9108958C3038F4E82F7A
:1000A000F0E0E05AFF4F808188BB089588E088BB6C
:1000B000089580916C00882319F0813051F012C0AE
:1000C00081E080936C00D89A80916D00E6DFDA9829
:1000D000089582E080936C00DA9A80916E00DDDFF3
:1000E000D998089510926C00D99A80916F00D5DF4D
:1000F000D8980895EDE6F0E08BE0808381838283D9
:10010000AFE4B3EC1197F1F700C000009AE09083E0
:1001100081838283AFE4B3EC1197F1F700C0000054
:10012000808391838283AFE4B3EC1197F1F700C031
:1001300000008083818392838FE493EC0197F1F731
:1001400000C000000895DF98D79A80EA8A95F1F7F9
:10015000D79897E19A95F1F7000089B398E89A95B6
:10016000F1F700C0DF9A80780895F894DF9888232B
:1001700029F093E09A95F1F7000004C092E19A9576
:10018000F1F70000DF9A7894882329F085E18A95B9
:10019000F1F700C0089500C000C000000895F89471
:1001A000DF98D79A0000D79884E08A95F1F700C0CD
:1001B00089B378949FE09A95F1F7DF9A881F882792
:1001C000881F0895EF92FF920F931F93CF93DF93B1
:1001D000F82ED79A08E010E0C1E0D1E0E12C8D2F95
:1001E0009F2D9C2309F48E2DC0DFCC0F01501109E7
:1001F000B1F7DF91CF911F910F91FF90EF9008958C
:100200000F931F93CF93DF93C8E0D0E011E000E09D
:10021000C6DF8111012B110F2197D1F7802FDF91BC
:10022000CF911F910F9108958F929F92AF92BF929D
:10023000CF92DF92FF920F931F93CF93DF93CDB7AF
:10024000DD27C950CDBF5C014B017DDF811156C058
:100250008CECB8DF84E4B6DF2FEF80E792E021502A
:1002600080409040E1F700C000006DDFF82E811162
:1002700048C08CECA7DF8EEBA5DF8E010F5F1F4F10
:100280006E01EAE0CE0ED11CBBDFF80181938F0135
:10029000EC15FD05C9F768E0CE010196D1D099852E
:1002A000891332C08A8190E0982F88272981822B78
:1002B000803DF7E09F0760F4F401108292958295EB
:1002C0008F7089279F7089278F77F50180831EC0E3
:1002D0008095909521E0F4012083929582958F700E
:1002E00089279F708927082E000C990B99231CF4ED
:1002F000919581959109F501808308C0FF24F394BD
:1003000005C0FF24F39402C0FF24F3948F2DC75F30
:10031000CDBFDF91CF911F910F91FF90DF90CF90D4
:10032000BF90AF909F908F900895CF93DF9300D0B0
:10033000CDB7DD2792DE7894BE016E5F7F4FCE0190
:10034000019672DF81110DC06A8189819ADE2FE3E7
:100350008DE093E0215080409040E1F700C0000024
:10036000EBCFC8DEE9CFFB01482F50E09A01220F06
:10037000331F220F331F240F351F220F331F220F6D
:10038000331F220F331F420F531F9A01220F331FB7
:10039000220F331F420F531F9A01220F331F232FA7
:1003A000332722952F70922F990F990F920F990F43
:1003B000891B8283C901880F991F880F991F820F9B
:1003C000931F880F991F880F991F880F991F820FFD
:1003D000931FAC01440F551F440F551F840F951FE9
:1003E000880F991F892F992782958F70382F330F87
:1003F000330F380F330F231B21839C01220F331F30
:10040000220F331F280F391F220F331F220F331FD4
:10041000220F331F280F391FA901440F551F440F06
:10042000551F240F351F220F331F932F92959F7056
:10043000292F220F220F920F990F891B8083089575
:10044000FC019C01260F311DB90180E04CE80AC077
:10045000219198E0382F3227869530FD8427269504
:100460009150C1F7E617F70799F7089510BE2FB519
:1004700027602FBD20E429BF24E62DBD9093710095
:100480008093700008951F920F920FB60F9211245F
:100490002F933F934F935F936F937F938F939F938C
:1004A000AF93BF93EF93FF93E0917000F0917100D1
:1004B00009951EBCFF91EF91BF91AF919F918F91D4
:1004C0007F916F915F914F913F912F910F900FBE50
:0A04D0000F901F901895F894FFCFCD
:0C04DA0077116D5D1B5E7E157F5F0800D2
:00000001FF
